:020000002529B0
:10000800DF00030E8301C4000A08C5008A015008F6
:10001800A1005108A0000408A2000B1C4328831269
:100028000B10F83085058F018E01BC0A3908031DB5
:10003800222885160511851005104328380803194C
:1000480026288514230803192A2805143B08031DAC
:100058002F28051143283A08093A031D35280515A4
:1000680043283A08D000D00D50102430D00750084B
:10007800840000088F00500A840000088E000B1DC1
:1000880047280B11C10A83120C1C4F280C100515A8
:100098000000000005112108D0002008D100220826
:1000A800840045088A00440E8300DF0E5F0E0900B5
:1000B80083128101851961285E28C1014108D10098
:0C00C800D0010108D0070318D10A08007D
:1000D40083128101851D6F286C28C1014108D1005C
:0C00E400D0010108D0070318D10A080061
:0C00F000831243088A00420882000800C6
:1000FC008312CA0108304A02031897285C206A2030
:10010C00CB0CCB138030D200803051065202031D31
:10011C00912850080E3C031895288030CB07CA0A4A
:08012C0080284B08D0000800F8
:100134008312BE01BD01C001BF01851DA2289F28F5
:100144005C205008C6005108C7008030D2008030BF
:1001540051065202031DB0285008783C0318F128B8
:1001640080304706D00080305002031DBB28BE30CB
:1001740046020318F1286A205008C6005108C70037
:100184008030D200803051065202031DCB28500823
:10019400323C0318E72880304706D00080305002F4
:1001A400031DD628783046020318E728C801043016
:1001B40048020318E72848083D3EC9007E20490844
:1001C400840050088000C80AD9288230DC00DD3061
:1001D400DD00DD0BEB28DC0BEB2800000000080041
:0801E40083128516BC0108001E
:1001EC0078208A110A128000840AC20A0319C30AF1
:0801FC00D003031DF6280800E2
:1002040083169C1C07290000022946089B00470806
:100214009A009C131C150B08D0008B1355309D00BD
:10022400AA309D009C14D01B19298B131A298B17F3
:040234001C11080091
:100238008312460883169B009C131C141A08D000CE
:020248000800AC
:10024A008312A301E030A400C030A500E330A60069
:10025A00E030A700E730A800A901EA30AA00203060
:10026A00AB00ED30AC004030AD00F030AE00603095
:10027A00AF00F330B0008030B100F630B200A030E9
:10028A00B300F930B400C030B500FF30B600F63024
:10029A00B700B8010130B900BA010130BB008316BA
:1002AA009F01073083129900183083168500103099
:1002BA009600E8308B00853081000130831290006F
:1002CA000C108F018E0183160C14831285160511EA
:1002DA0085100510C6011C215008B9000130C6005E
:1002EA001C215008BA000230C6001C215008BB006D
:1002FA000330C6001C215008B8000430C6001C2177
:10030A005008A3003A08FF3A031D8C29BA0139089C
:10031A0003199129831285129A203F08DC3A031D9A
:10032A00A12A552A390803199F29B901C601C7010B
:10033A000221A7290130B90083128512C6010130B2
:10034A00C7000221952A3B080319B329BB01F220F1
:10035A000230C6003B08C7000221BB290130BB009E
:10036A00F2200230C6003B08C7000221952A093054
:10037A003A020318C729BA0AF2200130C6003A081D
:10038A00C7000221952A3A08003C0318D329BA0368
:10039A00F2200130C6003A08C7000221952A38081F
:1003AA000319DF29B801F2200330C6003808C70054
:1003BA000221E7290130B800F2200330C6003808CC
:1003CA00C7000221952A23080319F329A301F22061
:1003DA000430C6002308C7000221FB290130A3000C
:1003EA00F2200430C6002308C7000221952ABA0168
:1003FA00F2200130C6003A08C7000221952A0130CE
:10040A00BA00F2200130C6003A08C7000221952A34
:10041A000230BA00F2200130C6003A08C7000221B1
:10042A00952A0330BA00F2200130C6003A08C70004
:10043A000221952A0430BA00F2200130C6003A0897
:10044A00C7000221952A0530BA00F2200130C60001
:10045A003A08C7000221952A0630BA00F220013074
:10046A00C6003A08C7000221952A0730BA00F220CE
:10047A000130C6003A08C7000221952A0830BA009E
:10048A00F2200130C6003A08C7000221952A093035
:10049A00BA00F2200130C6003A08C7000221952AA4
:1004AA0040084B3A0319972940085B3A0319A829CF
:1004BA004008433A0319BC294008533A0319C8298A
:1004CA0040084F3A0319D42940085F3A0319E8292A
:1004DA004008073A0319FC2940080B3A0319042A71
:1004EA0040080F3A03190D2A4008133A0319162A2D
:1004FA004008173A03191F2A40081B3A0319282AE9
:10050A0040081F3A0319312A4008233A03193A2AA4
:10051A004008273A0319432A4008033A03194C2A88
:10052A000230DB008630DC009930DD00DD0B9B2ACF
:10053A00DC0B9B2ADB0B9B2A19303C02031CAB2ADF
:10054A0039080319AA2A83128512BC019129AC2AF7
:02400E0014306C
:00000001FF
