:020000002429B1
:10000800DF00030E8301C4000A08C5008A015008F6
:10001800A1005108A0000408A2000B1C4328831269
:100028000B10F83085058F018E01BC0A3908031DB5
:10003800222885160511851005104328380803194C
:1000480026288514230803192A2805143B08031DAC
:100058002F28051143283A08093A031D35280515A4
:1000680043283A08D000D00D50102430D00750084B
:10007800840000088F00500A840000088E000B1DC1
:1000880047280B11C10A83120C1C4F280C100515A8
:100098000000000005112108D0002008D100220826
:1000A800840045088A00440E8300DF0E5F0E0900B5
:1000B80083128101851961285E28C1014108D10098
:0C00C800D0010108D0070318D10A08007D
:1000D40083128101851D6F286C28C1014108D1005C
:0C00E400D0010108D0070318D10A080061
:0C00F000831243088A00420882000800C6
:1000FC008312CA0108304A02031897285C206A2030
:10010C00CB0CCB138030D200803051065202031D31
:10011C00912850080E3C031895288030CB07CA0A4A
:08012C0080284B08D0000800F8
:100134008312BE01BD01C001BF01851DA2289F28F5
:100144005C205008C6005108C7008030D2008030BF
:1001540051065202031DB0285008783C0318F028B9
:1001640080304706D00080305002031DBB28BE30CB
:1001740046020318F0286A205008C6005108C70038
:100184008030D200803051065202031DCB28500823
:10019400323C0318E72880304706D00080305002F4
:1001A400031DD628783046020318E728C801043016
:1001B40048020318E72848083D3EC9007E20490844
:1001C400840050088000C80AD9281A30DC00F830AE
:0E01D400DD00DD0BEB28DC0BEB280000080043
:0801E20083128516BC01080020
:1001EA0078208A110A128000840AC20A0319C30AF3
:0801FA00D003031DF5280800E5
:1002020083169C1C06290000012946089B0047080A
:100212009A009C131C150B08D0008B1355309D00BF
:10022200AA309D009C14D01B18298B1319298B17F7
:040232001C11080093
:100236008312460883169B009C131C141A08D000D0
:020246000800AE
:100248008312A301E030A400C030A500E330A6006B
:10025800E030A700E730A800A901EA30AA00203062
:10026800AB00ED30AC004030AD00F030AE00603097
:10027800AF00F330B0008030B100F630B200A030EB
:10028800B300F930B400C030B500FF30B600F63026
:10029800B700B8010130B900BA010130BB008316BC
:1002A8009F0107308312990018308316850010309B
:1002B8009600E8308B008530810001308312900071
:1002C8000C108F018E0183160C14831285160511EC
:1002D80085100510C6011B215008B9000130C60061
:1002E8001B215008BA000230C6001B215008BB0071
:1002F8000330C6001B215008B8000430C6001B217B
:100308005008A3003A08FF3A031D8B29BA0139089F
:1003180003199029831285129A203E08FF3A031D7B
:10032800A02A542A390803199E29B901C601C70110
:100338000121A6290130B90083128512C6010130B6
:10034800C7000121942A3B080319B229BB01F120F7
:100358000230C6003B08C7000121BA290130BB00A2
:10036800F1200230C6003B08C7000121942A093059
:100378003A020318C629BA0AF1200130C6003A0821
:10038800C7000121942A3A08003C0318D229BA036D
:10039800F1200130C6003A08C7000121942A380824
:1003A8000319DE29B801F1200330C6003808C70058
:1003B8000121E6290130B800F1200330C6003808D1
:1003C800C7000121942A23080319F229A301F12067
:1003D8000430C6002308C7000121FA290130A30010
:1003E800F1200430C6002308C7000121942ABA016D
:1003F800F1200130C6003A08C7000121942A0130D3
:10040800BA00F1200130C6003A08C7000121942A39
:100418000230BA00F1200130C6003A08C7000121B5
:10042800942A0330BA00F1200130C6003A08C70008
:100438000121942A0430BA00F1200130C6003A089C
:10044800C7000121942A0530BA00F1200130C60006
:100458003A08C7000121942A0630BA00F120013079
:10046800C6003A08C7000121942A0730BA00F120D3
:100478000130C6003A08C7000121942A0830BA00A2
:10048800F1200130C6003A08C7000121942A09303A
:10049800BA00F1200130C6003A08C7000121942AA9
:1004A8003F08453A031996293F08473A0319A729EF
:1004B8003F08433A0319BB293F08443A0319C7299F
:1004C8003F08073A0319D3293F08093A0319E729CE
:1004D8003F080D3A0319FB293F080C3A0319032A70
:1004E8003F08183A03190C2A3F085E3A0319152ADF
:1004F8003F08083A03191E2A3F081C3A0319272AFD
:100508003F085A3A0319302A3F08423A0319392A50
:100518003F08523A0319422A3F084A3A03194B2A1C
:100528000230DB008630DC009930DD00DD0B9A2AD2
:10053800DC0B9A2ADB0B9A2A32303C02031CAA2ACB
:1005480039080319A92A83128512BC019029AB2AFC
:02400E0014306C
:00000001FF
