:020000001629BF
:10000800DF00030E8301C3000A08C2008A015008FA
:10001800A1005108A0000408A2000B1C4328831269
:100028000B10F83085058F018E01C10A3B08031DAE
:100038002228851605118510051043282308031961
:1000480026288514250803192A2805142408031DC1
:100058002F28051143283A08093A031D35280515A4
:1000680043283A08D000D00D50102630D007500849
:10007800840000088F00500A840000088E000B1DC1
:1000880047280B11BD0A83120C1C4F280C100515AC
:100098000000000005112108D0002008D100220826
:1000A800840042088A00430E8300DF0E5F0E0900B9
:0C00B800831240088A003F088200080004
:1000C4008312851D66286228BD01810185196B286C
:1000D40068283D08D100D0010108D0070318D10ACF
:0200E400080012
:1000E6008312440883169B009C131C141A08D00024
:0200F600080000
:0800F80083128516C101080006
:100100005C208A110A128000840ABF0A0319C00AFF
:08011000D003031D8028080044
:100118008312BC01BE0162205008C4005108C5000A
:100128005108003C031D9A285008783C0318FB2806
:1001380000304502031DA228C83044020318FB28DA
:10014800C601C70100304702031DAC28073046022C
:100158000318C52862205008C4005108C500BC0C0B
:10016800BC137F30BC055108003C031DBD28500856
:10017800403C0318C1288030BC06C60A0319C70AC8
:10018800A628BC0CBC137F30BC05C601C7010030D3
:100198004702031DD128053046020318EA286220C9
:1001A8005008C4005108C500BE0CBE137F30BE0500
:1001B8005108003C031DE2285008403C0318E6287B
:1001C8008030BE06C60A0319C70ACB28BE0CBE1368
:1001D800BE0CBE13BE0CBE131F30BE051A30DC00A9
:1001E800F830DD00DD0BF628DC0BF62800000800EF
:1001F80083169C1C01290000FC2844089B00450824
:100208009A009C131C150B08D0008B1355309D00C9
:10021800AA309D009C14D01B13298B1314298B170B
:040228001C1108009D
:10022C008312A3010130A400A501E030A600C03068
:10023C00A700E330A800E030A900E730AA00AB012A
:10024C00EA30AC002030AD00ED30AE004030AF00F5
:10025C00F030B0006030B100F330B2008030B30049
:10026C00F630B400A030B500F930B600C030B7009D
:10027C00FF30B800F630B900BA010130BB0083166C
:10028C009F010730831299001830831685001030B7
:10029C009600E8308B00833081000130831290008F
:1002AC000C108F018E0183160C1483128516051108
:1002BC0085100510C40173205008BB000130C40028
:1002CC0073205008BA000230C40073205008A400F8
:1002DC000330C40073205008A3000430C400732002
:1002EC005008A5003A08FF3A031D7D29BA013B08C6
:1002FC0003198229831285128C203E08013A031DB2
:10030C00922A462A3B0803199029BB01C401C50156
:10031C00FC2098290130BB0083128512C4010130E6
:10032C00C500FC20862A24080319A429A4017C20DA
:10033C000230C4002408C500FC20AC290130A40004
:10034C007C200230C4002408C500FC20862A093019
:10035C003A020318B829BA0A7C200130C4003A08C2
:10036C00C500FC20862A3A08003C0318C429BA03AD
:10037C007C200130C4003A08C500FC20862A2308E2
:10038C000319D029A3017C200330C4002308C50025
:10039C00FC20D8290130A3007C200330C4002308A2
:1003AC00C500FC20862A25080319E429A5017C2018
:1003BC000430C4002508C500FC20EC290130A50040
:1003CC007C200430C4002508C500FC20862ABA0114
:1003DC007C200130C4003A08C500FC20862A01307C
:1003EC00BA007C200130C4003A08C500FC20862AE3
:1003FC000230BA007C200130C4003A08C500FC2051
:10040C00862A0330BA007C200130C4003A08C500AB
:10041C00FC20862A0430BA007C200130C4003A0843
:10042C00C500FC20862A0530BA007C200130C400AF
:10043C003A08C500FC20862A0630BA007C20013020
:10044C00C4003A08C500FC20862A0730BA007C207C
:10045C000130C4003A08C500FC20862A0830BA00D6
:10046C007C200130C4003A08C500FC20862A0930E3
:10047C00BA007C200130C4003A08C500FC20862A52
:10048C003C08153A031988293C08143A0319992990
:10049C003C08123A0319AD293C08133A0319B9293F
:1004AC003C08103A0319C5293C08113A0319D929FB
:1004BC003C08003A0319ED293C08013A0319F529C7
:1004CC003C08023A0319FE293C08033A0319072A8F
:1004DC003C08043A0319102A3C08053A0319192A56
:1004EC003C08063A0319222A3C08073A03192B2A1E
:1004FC003C08083A0319342A3C08093A03193D2AE6
:10050C000230DB008630DC009930DD00DD0B8C2AFC
:10051C00DC0B8C2ADB0B8C2A32304102031C9C2A0C
:10052C003B0803199B2A83128512C10182299D2A3B
:02400E0014306C
:00000001FF
